{"contracts/Vesting.sol":{"Vesting":{"abi":[{"inputs":[{"internalType":"uint256","name":"_vestingInterval","type":"uint256"},{"internalType":"uint256","name":"_vestingTotalIntervals","type":"uint256"},{"internalType":"uint256","name":"_totalVestingAmount","type":"uint256"},{"internalType":"address","name":"_tokenAddress","type":"address"}],"stateMutability":"nonpayable","type":"constructor"},{"inputs":[],"name":"claimTokens","outputs":[],"stateMutability":"nonpayable","type":"function"},{"inputs":[],"name":"getUserVestingAmount","outputs":[{"internalType":"uint256","name":"","type":"uint256"}],"stateMutability":"view","type":"function"},{"inputs":[],"name":"register","outputs":[],"stateMutability":"nonpayable","type":"function"},{"inputs":[],"name":"tokenAddress","outputs":[{"internalType":"address","name":"","type":"address"}],"stateMutability":"view","type":"function"},{"inputs":[],"name":"totalVestingAmount","outputs":[{"internalType":"uint256","name":"","type":"uint256"}],"stateMutability":"view","type":"function"},{"inputs":[{"internalType":"address","name":"","type":"address"}],"name":"userClaimedAmount","outputs":[{"internalType":"uint256","name":"","type":"uint256"}],"stateMutability":"view","type":"function"},{"inputs":[],"name":"userVestingAmount","outputs":[{"internalType":"uint256","name":"","type":"uint256"}],"stateMutability":"view","type":"function"},{"inputs":[{"internalType":"address","name":"","type":"address"}],"name":"userVestingStartTime","outputs":[{"internalType":"uint256","name":"","type":"uint256"}],"stateMutability":"view","type":"function"},{"inputs":[],"name":"vestingInterval","outputs":[{"internalType":"uint256","name":"","type":"uint256"}],"stateMutability":"view","type":"function"},{"inputs":[],"name":"vestingTotalIntervals","outputs":[{"internalType":"uint256","name":"","type":"uint256"}],"stateMutability":"view","type":"function"}],"evm":{"bytecode":{"linkReferences":{},"object":"608060405234801561001057600080fd5b50604051610c22380380610c228339818101604052810190610032919061012a565b83600081905550826001819055508160028190555080600460006101000a81548173ffffffffffffffffffffffffffffffffffffffff021916908373ffffffffffffffffffffffffffffffffffffffff16021790555050505050610191565b600080fd5b6000819050919050565b6100a981610096565b81146100b457600080fd5b50565b6000815190506100c6816100a0565b92915050565b600073ffffffffffffffffffffffffffffffffffffffff82169050919050565b60006100f7826100cc565b9050919050565b610107816100ec565b811461011257600080fd5b50565b600081519050610124816100fe565b92915050565b6000806000806080858703121561014457610143610091565b5b6000610152878288016100b7565b9450506020610163878288016100b7565b9350506040610174878288016100b7565b925050606061018587828801610115565b91505092959194509250565b610a82806101a06000396000f3fe608060405234801561001057600080fd5b506004361061009e5760003560e01c806348c54b9d1161006657806348c54b9d1461014957806352925daf146101535780639d76ea5814610171578063b8e50cab1461018f578063eefe3844146101ad5761009e565b806314cedee0146100a35780631aa3a008146100d35780632db94d19146100dd5780632f926723146100fb5780632fe35fa71461012b575b600080fd5b6100bd60048036038101906100b89190610639565b6101cb565b6040516100ca919061067f565b60405180910390f35b6100db6101e3565b005b6100e56102b7565b6040516100f2919061067f565b60405180910390f35b61011560048036038101906101109190610639565b6102bd565b604051610122919061067f565b60405180910390f35b6101336102d5565b604051610140919061067f565b60405180910390f35b6101516102db565b005b61015b61058d565b604051610168919061067f565b60405180910390f35b6101796105a4565b60405161018691906106a9565b60405180910390f35b6101976105ca565b6040516101a4919061067f565b60405180910390f35b6101b56105d0565b6040516101c2919061067f565b60405180910390f35b60056020528060005260406000206000915090505481565b6000600560003373ffffffffffffffffffffffffffffffffffffffff1673ffffffffffffffffffffffffffffffffffffffff1681526020019081526020016000205414610265576040517f08c379a000000000000000000000000000000000000000000000000000000000815260040161025c90610721565b60405180910390fd5b60b4426102729190610770565b600560003373ffffffffffffffffffffffffffffffffffffffff1673ffffffffffffffffffffffffffffffffffffffff16815260200190815260200160002081905550565b60025481565b60066020528060005260406000206000915090505481565b60035481565b6000600560003373ffffffffffffffffffffffffffffffffffffffff1673ffffffffffffffffffffffffffffffffffffffff16815260200190815260200160002054905060008111610362576040517f08c379a0000000000000000000000000000000000000000000000000000000008152600401610359906107f0565b60405180910390fd5b804210156103a5576040517f08c379a000000000000000000000000000000000000000000000000000000000815260040161039c9061085c565b60405180910390fd5b6000805482426103b5919061087c565b6103bf91906108df565b905060006103cb61058d565b826103d69190610910565b90506000600660003373ffffffffffffffffffffffffffffffffffffffff1673ffffffffffffffffffffffffffffffffffffffff1681526020019081526020016000205482610425919061087c565b90506000811161046a576040517f08c379a00000000000000000000000000000000000000000000000000000000081526004016104619061099e565b60405180910390fd5b670de0b6b3a76400008161047e9190610910565b600660003373ffffffffffffffffffffffffffffffffffffffff1673ffffffffffffffffffffffffffffffffffffffff16815260200190815260200160002060008282546104cc9190610770565b92505081905550600460009054906101000a900473ffffffffffffffffffffffffffffffffffffffff1673ffffffffffffffffffffffffffffffffffffffff1663a9059cbb33670de0b6b3a7640000846105269190610910565b6040518363ffffffff1660e01b81526004016105439291906109be565b6020604051808303816000875af1158015610562573d6000803e3d6000fd5b505050506040513d601f19601f820116820180604052508101906105869190610a1f565b5050505050565b600060015460025461059f91906108df565b905090565b600460009054906101000a900473ffffffffffffffffffffffffffffffffffffffff1681565b60005481565b60015481565b600080fd5b600073ffffffffffffffffffffffffffffffffffffffff82169050919050565b6000610606826105db565b9050919050565b610616816105fb565b811461062157600080fd5b50565b6000813590506106338161060d565b92915050565b60006020828403121561064f5761064e6105d6565b5b600061065d84828501610624565b91505092915050565b6000819050919050565b61067981610666565b82525050565b60006020820190506106946000830184610670565b92915050565b6106a3816105fb565b82525050565b60006020820190506106be600083018461069a565b92915050565b600082825260208201905092915050565b7f596f752061726520616c72656164792072656769737465726564210000000000600082015250565b600061070b601b836106c4565b9150610716826106d5565b602082019050919050565b6000602082019050818103600083015261073a816106fe565b9050919050565b7f4e487b7100000000000000000000000000000000000000000000000000000000600052601160045260246000fd5b600061077b82610666565b915061078683610666565b925082820190508082111561079e5761079d610741565b5b92915050565b7f596f75206e65656420746f207265676973746572206669727374210000000000600082015250565b60006107da601b836106c4565b91506107e5826107a4565b602082019050919050565b60006020820190508181036000830152610809816107cd565b9050919050565b7f56657374696e67206861736e2774207374617274656420796574210000000000600082015250565b6000610846601b836106c4565b915061085182610810565b602082019050919050565b6000602082019050818103600083015261087581610839565b9050919050565b600061088782610666565b915061089283610666565b92508282039050818111156108aa576108a9610741565b5b92915050565b7f4e487b7100000000000000000000000000000000000000000000000000000000600052601260045260246000fd5b60006108ea82610666565b91506108f583610666565b925082610905576109046108b0565b5b828204905092915050565b600061091b82610666565b915061092683610666565b925082820261093481610666565b9150828204841483151761094b5761094a610741565b5b5092915050565b7f4e6f20746f6b656e7320746f20636c61696d0000000000000000000000000000600082015250565b60006109886012836106c4565b915061099382610952565b602082019050919050565b600060208201905081810360008301526109b78161097b565b9050919050565b60006040820190506109d3600083018561069a565b6109e06020830184610670565b9392505050565b60008115159050919050565b6109fc816109e7565b8114610a0757600080fd5b50565b600081519050610a19816109f3565b92915050565b600060208284031215610a3557610a346105d6565b5b6000610a4384828501610a0a565b9150509291505056fea2646970667358221220fea6dda72c6a3acde5b5f7541e406df2e0daf3024a4f78686ffb49de964a256f64736f6c634300081b0033","opcodes":"PUSH1 0x80 PUSH1 0x40 MSTORE CALLVALUE DUP1 ISZERO PUSH2 0x10 JUMPI PUSH1 0x0 DUP1 REVERT JUMPDEST POP PUSH1 0x40 MLOAD PUSH2 0xC22 CODESIZE SUB DUP1 PUSH2 0xC22 DUP4 CODECOPY DUP2 DUP2 ADD PUSH1 0x40 MSTORE DUP2 ADD SWAP1 PUSH2 0x32 SWAP2 SWAP1 PUSH2 0x12A JUMP JUMPDEST DUP4 PUSH1 0x0 DUP2 SWAP1 SSTORE POP DUP3 PUSH1 0x1 DUP2 SWAP1 SSTORE POP DUP2 PUSH1 0x2 DUP2 SWAP1 SSTORE POP DUP1 PUSH1 0x4 PUSH1 0x0 PUSH2 0x100 EXP DUP2 SLOAD DUP2 PUSH20 0xFFFFFFFFFFFFFFFFFFFFFFFFFFFFFFFFFFFFFFFF MUL NOT AND SWAP1 DUP4 PUSH20 0xFFFFFFFFFFFFFFFFFFFFFFFFFFFFFFFFFFFFFFFF AND MUL OR SWAP1 SSTORE POP POP POP POP POP PUSH2 0x191 JUMP JUMPDEST PUSH1 0x0 DUP1 REVERT JUMPDEST PUSH1 0x0 DUP2 SWAP1 POP SWAP2 SWAP1 POP JUMP JUMPDEST PUSH2 0xA9 DUP2 PUSH2 0x96 JUMP JUMPDEST DUP2 EQ PUSH2 0xB4 JUMPI PUSH1 0x0 DUP1 REVERT JUMPDEST POP JUMP JUMPDEST PUSH1 0x0 DUP2 MLOAD SWAP1 POP PUSH2 0xC6 DUP2 PUSH2 0xA0 JUMP JUMPDEST SWAP3 SWAP2 POP POP JUMP JUMPDEST PUSH1 0x0 PUSH20 0xFFFFFFFFFFFFFFFFFFFFFFFFFFFFFFFFFFFFFFFF DUP3 AND SWAP1 POP SWAP2 SWAP1 POP JUMP JUMPDEST PUSH1 0x0 PUSH2 0xF7 DUP3 PUSH2 0xCC JUMP JUMPDEST SWAP1 POP SWAP2 SWAP1 POP JUMP JUMPDEST PUSH2 0x107 DUP2 PUSH2 0xEC JUMP JUMPDEST DUP2 EQ PUSH2 0x112 JUMPI PUSH1 0x0 DUP1 REVERT JUMPDEST POP JUMP JUMPDEST PUSH1 0x0 DUP2 MLOAD SWAP1 POP PUSH2 0x124 DUP2 PUSH2 0xFE JUMP JUMPDEST SWAP3 SWAP2 POP POP JUMP JUMPDEST PUSH1 0x0 DUP1 PUSH1 0x0 DUP1 PUSH1 0x80 DUP6 DUP8 SUB SLT ISZERO PUSH2 0x144 JUMPI PUSH2 0x143 PUSH2 0x91 JUMP JUMPDEST JUMPDEST PUSH1 0x0 PUSH2 0x152 DUP8 DUP3 DUP9 ADD PUSH2 0xB7 JUMP JUMPDEST SWAP5 POP POP PUSH1 0x20 PUSH2 0x163 DUP8 DUP3 DUP9 ADD PUSH2 0xB7 JUMP JUMPDEST SWAP4 POP POP PUSH1 0x40 PUSH2 0x174 DUP8 DUP3 DUP9 ADD PUSH2 0xB7 JUMP JUMPDEST SWAP3 POP POP PUSH1 0x60 PUSH2 0x185 DUP8 DUP3 DUP9 ADD PUSH2 0x115 JUMP JUMPDEST SWAP2 POP POP SWAP3 SWAP6 SWAP2 SWAP5 POP SWAP3 POP JUMP JUMPDEST PUSH2 0xA82 DUP1 PUSH2 0x1A0 PUSH1 0x0 CODECOPY PUSH1 0x0 RETURN INVALID PUSH1 0x80 PUSH1 0x40 MSTORE CALLVALUE DUP1 ISZERO PUSH2 0x10 JUMPI PUSH1 0x0 DUP1 REVERT JUMPDEST POP PUSH1 0x4 CALLDATASIZE LT PUSH2 0x9E JUMPI PUSH1 0x0 CALLDATALOAD PUSH1 0xE0 SHR DUP1 PUSH4 0x48C54B9D GT PUSH2 0x66 JUMPI DUP1 PUSH4 0x48C54B9D EQ PUSH2 0x149 JUMPI DUP1 PUSH4 0x52925DAF EQ PUSH2 0x153 JUMPI DUP1 PUSH4 0x9D76EA58 EQ PUSH2 0x171 JUMPI DUP1 PUSH4 0xB8E50CAB EQ PUSH2 0x18F JUMPI DUP1 PUSH4 0xEEFE3844 EQ PUSH2 0x1AD JUMPI PUSH2 0x9E JUMP JUMPDEST DUP1 PUSH4 0x14CEDEE0 EQ PUSH2 0xA3 JUMPI DUP1 PUSH4 0x1AA3A008 EQ PUSH2 0xD3 JUMPI DUP1 PUSH4 0x2DB94D19 EQ PUSH2 0xDD JUMPI DUP1 PUSH4 0x2F926723 EQ PUSH2 0xFB JUMPI DUP1 PUSH4 0x2FE35FA7 EQ PUSH2 0x12B JUMPI JUMPDEST PUSH1 0x0 DUP1 REVERT JUMPDEST PUSH2 0xBD PUSH1 0x4 DUP1 CALLDATASIZE SUB DUP2 ADD SWAP1 PUSH2 0xB8 SWAP2 SWAP1 PUSH2 0x639 JUMP JUMPDEST PUSH2 0x1CB JUMP JUMPDEST PUSH1 0x40 MLOAD PUSH2 0xCA SWAP2 SWAP1 PUSH2 0x67F JUMP JUMPDEST PUSH1 0x40 MLOAD DUP1 SWAP2 SUB SWAP1 RETURN JUMPDEST PUSH2 0xDB PUSH2 0x1E3 JUMP JUMPDEST STOP JUMPDEST PUSH2 0xE5 PUSH2 0x2B7 JUMP JUMPDEST PUSH1 0x40 MLOAD PUSH2 0xF2 SWAP2 SWAP1 PUSH2 0x67F JUMP JUMPDEST PUSH1 0x40 MLOAD DUP1 SWAP2 SUB SWAP1 RETURN JUMPDEST PUSH2 0x115 PUSH1 0x4 DUP1 CALLDATASIZE SUB DUP2 ADD SWAP1 PUSH2 0x110 SWAP2 SWAP1 PUSH2 0x639 JUMP JUMPDEST PUSH2 0x2BD JUMP JUMPDEST PUSH1 0x40 MLOAD PUSH2 0x122 SWAP2 SWAP1 PUSH2 0x67F JUMP JUMPDEST PUSH1 0x40 MLOAD DUP1 SWAP2 SUB SWAP1 RETURN JUMPDEST PUSH2 0x133 PUSH2 0x2D5 JUMP JUMPDEST PUSH1 0x40 MLOAD PUSH2 0x140 SWAP2 SWAP1 PUSH2 0x67F JUMP JUMPDEST PUSH1 0x40 MLOAD DUP1 SWAP2 SUB SWAP1 RETURN JUMPDEST PUSH2 0x151 PUSH2 0x2DB JUMP JUMPDEST STOP JUMPDEST PUSH2 0x15B PUSH2 0x58D JUMP JUMPDEST PUSH1 0x40 MLOAD PUSH2 0x168 SWAP2 SWAP1 PUSH2 0x67F JUMP JUMPDEST PUSH1 0x40 MLOAD DUP1 SWAP2 SUB SWAP1 RETURN JUMPDEST PUSH2 0x179 PUSH2 0x5A4 JUMP JUMPDEST PUSH1 0x40 MLOAD PUSH2 0x186 SWAP2 SWAP1 PUSH2 0x6A9 JUMP JUMPDEST PUSH1 0x40 MLOAD DUP1 SWAP2 SUB SWAP1 RETURN JUMPDEST PUSH2 0x197 PUSH2 0x5CA JUMP JUMPDEST PUSH1 0x40 MLOAD PUSH2 0x1A4 SWAP2 SWAP1 PUSH2 0x67F JUMP JUMPDEST PUSH1 0x40 MLOAD DUP1 SWAP2 SUB SWAP1 RETURN JUMPDEST PUSH2 0x1B5 PUSH2 0x5D0 JUMP JUMPDEST PUSH1 0x40 MLOAD PUSH2 0x1C2 SWAP2 SWAP1 PUSH2 0x67F JUMP JUMPDEST PUSH1 0x40 MLOAD DUP1 SWAP2 SUB SWAP1 RETURN JUMPDEST PUSH1 0x5 PUSH1 0x20 MSTORE DUP1 PUSH1 0x0 MSTORE PUSH1 0x40 PUSH1 0x0 KECCAK256 PUSH1 0x0 SWAP2 POP SWAP1 POP SLOAD DUP2 JUMP JUMPDEST PUSH1 0x0 PUSH1 0x5 PUSH1 0x0 CALLER PUSH20 0xFFFFFFFFFFFFFFFFFFFFFFFFFFFFFFFFFFFFFFFF AND PUSH20 0xFFFFFFFFFFFFFFFFFFFFFFFFFFFFFFFFFFFFFFFF AND DUP2 MSTORE PUSH1 0x20 ADD SWAP1 DUP2 MSTORE PUSH1 0x20 ADD PUSH1 0x0 KECCAK256 SLOAD EQ PUSH2 0x265 JUMPI PUSH1 0x40 MLOAD PUSH32 0x8C379A000000000000000000000000000000000000000000000000000000000 DUP2 MSTORE PUSH1 0x4 ADD PUSH2 0x25C SWAP1 PUSH2 0x721 JUMP JUMPDEST PUSH1 0x40 MLOAD DUP1 SWAP2 SUB SWAP1 REVERT JUMPDEST PUSH1 0xB4 TIMESTAMP PUSH2 0x272 SWAP2 SWAP1 PUSH2 0x770 JUMP JUMPDEST PUSH1 0x5 PUSH1 0x0 CALLER PUSH20 0xFFFFFFFFFFFFFFFFFFFFFFFFFFFFFFFFFFFFFFFF AND PUSH20 0xFFFFFFFFFFFFFFFFFFFFFFFFFFFFFFFFFFFFFFFF AND DUP2 MSTORE PUSH1 0x20 ADD SWAP1 DUP2 MSTORE PUSH1 0x20 ADD PUSH1 0x0 KECCAK256 DUP2 SWAP1 SSTORE POP JUMP JUMPDEST PUSH1 0x2 SLOAD DUP2 JUMP JUMPDEST PUSH1 0x6 PUSH1 0x20 MSTORE DUP1 PUSH1 0x0 MSTORE PUSH1 0x40 PUSH1 0x0 KECCAK256 PUSH1 0x0 SWAP2 POP SWAP1 POP SLOAD DUP2 JUMP JUMPDEST PUSH1 0x3 SLOAD DUP2 JUMP JUMPDEST PUSH1 0x0 PUSH1 0x5 PUSH1 0x0 CALLER PUSH20 0xFFFFFFFFFFFFFFFFFFFFFFFFFFFFFFFFFFFFFFFF AND PUSH20 0xFFFFFFFFFFFFFFFFFFFFFFFFFFFFFFFFFFFFFFFF AND DUP2 MSTORE PUSH1 0x20 ADD SWAP1 DUP2 MSTORE PUSH1 0x20 ADD PUSH1 0x0 KECCAK256 SLOAD SWAP1 POP PUSH1 0x0 DUP2 GT PUSH2 0x362 JUMPI PUSH1 0x40 MLOAD PUSH32 0x8C379A000000000000000000000000000000000000000000000000000000000 DUP2 MSTORE PUSH1 0x4 ADD PUSH2 0x359 SWAP1 PUSH2 0x7F0 JUMP JUMPDEST PUSH1 0x40 MLOAD DUP1 SWAP2 SUB SWAP1 REVERT JUMPDEST DUP1 TIMESTAMP LT ISZERO PUSH2 0x3A5 JUMPI PUSH1 0x40 MLOAD PUSH32 0x8C379A000000000000000000000000000000000000000000000000000000000 DUP2 MSTORE PUSH1 0x4 ADD PUSH2 0x39C SWAP1 PUSH2 0x85C JUMP JUMPDEST PUSH1 0x40 MLOAD DUP1 SWAP2 SUB SWAP1 REVERT JUMPDEST PUSH1 0x0 DUP1 SLOAD DUP3 TIMESTAMP PUSH2 0x3B5 SWAP2 SWAP1 PUSH2 0x87C JUMP JUMPDEST PUSH2 0x3BF SWAP2 SWAP1 PUSH2 0x8DF JUMP JUMPDEST SWAP1 POP PUSH1 0x0 PUSH2 0x3CB PUSH2 0x58D JUMP JUMPDEST DUP3 PUSH2 0x3D6 SWAP2 SWAP1 PUSH2 0x910 JUMP JUMPDEST SWAP1 POP PUSH1 0x0 PUSH1 0x6 PUSH1 0x0 CALLER PUSH20 0xFFFFFFFFFFFFFFFFFFFFFFFFFFFFFFFFFFFFFFFF AND PUSH20 0xFFFFFFFFFFFFFFFFFFFFFFFFFFFFFFFFFFFFFFFF AND DUP2 MSTORE PUSH1 0x20 ADD SWAP1 DUP2 MSTORE PUSH1 0x20 ADD PUSH1 0x0 KECCAK256 SLOAD DUP3 PUSH2 0x425 SWAP2 SWAP1 PUSH2 0x87C JUMP JUMPDEST SWAP1 POP PUSH1 0x0 DUP2 GT PUSH2 0x46A JUMPI PUSH1 0x40 MLOAD PUSH32 0x8C379A000000000000000000000000000000000000000000000000000000000 DUP2 MSTORE PUSH1 0x4 ADD PUSH2 0x461 SWAP1 PUSH2 0x99E JUMP JUMPDEST PUSH1 0x40 MLOAD DUP1 SWAP2 SUB SWAP1 REVERT JUMPDEST PUSH8 0xDE0B6B3A7640000 DUP2 PUSH2 0x47E SWAP2 SWAP1 PUSH2 0x910 JUMP JUMPDEST PUSH1 0x6 PUSH1 0x0 CALLER PUSH20 0xFFFFFFFFFFFFFFFFFFFFFFFFFFFFFFFFFFFFFFFF AND PUSH20 0xFFFFFFFFFFFFFFFFFFFFFFFFFFFFFFFFFFFFFFFF AND DUP2 MSTORE PUSH1 0x20 ADD SWAP1 DUP2 MSTORE PUSH1 0x20 ADD PUSH1 0x0 KECCAK256 PUSH1 0x0 DUP3 DUP3 SLOAD PUSH2 0x4CC SWAP2 SWAP1 PUSH2 0x770 JUMP JUMPDEST SWAP3 POP POP DUP2 SWAP1 SSTORE POP PUSH1 0x4 PUSH1 0x0 SWAP1 SLOAD SWAP1 PUSH2 0x100 EXP SWAP1 DIV PUSH20 0xFFFFFFFFFFFFFFFFFFFFFFFFFFFFFFFFFFFFFFFF AND PUSH20 0xFFFFFFFFFFFFFFFFFFFFFFFFFFFFFFFFFFFFFFFF AND PUSH4 0xA9059CBB CALLER PUSH8 0xDE0B6B3A7640000 DUP5 PUSH2 0x526 SWAP2 SWAP1 PUSH2 0x910 JUMP JUMPDEST PUSH1 0x40 MLOAD DUP4 PUSH4 0xFFFFFFFF AND PUSH1 0xE0 SHL DUP2 MSTORE PUSH1 0x4 ADD PUSH2 0x543 SWAP3 SWAP2 SWAP1 PUSH2 0x9BE JUMP JUMPDEST PUSH1 0x20 PUSH1 0x40 MLOAD DUP1 DUP4 SUB DUP2 PUSH1 0x0 DUP8 GAS CALL ISZERO DUP1 ISZERO PUSH2 0x562 JUMPI RETURNDATASIZE PUSH1 0x0 DUP1 RETURNDATACOPY RETURNDATASIZE PUSH1 0x0 REVERT JUMPDEST POP POP POP POP PUSH1 0x40 MLOAD RETURNDATASIZE PUSH1 0x1F NOT PUSH1 0x1F DUP3 ADD AND DUP3 ADD DUP1 PUSH1 0x40 MSTORE POP DUP2 ADD SWAP1 PUSH2 0x586 SWAP2 SWAP1 PUSH2 0xA1F JUMP JUMPDEST POP POP POP POP POP JUMP JUMPDEST PUSH1 0x0 PUSH1 0x1 SLOAD PUSH1 0x2 SLOAD PUSH2 0x59F SWAP2 SWAP1 PUSH2 0x8DF JUMP JUMPDEST SWAP1 POP SWAP1 JUMP JUMPDEST PUSH1 0x4 PUSH1 0x0 SWAP1 SLOAD SWAP1 PUSH2 0x100 EXP SWAP1 DIV PUSH20 0xFFFFFFFFFFFFFFFFFFFFFFFFFFFFFFFFFFFFFFFF AND DUP2 JUMP JUMPDEST PUSH1 0x0 SLOAD DUP2 JUMP JUMPDEST PUSH1 0x1 SLOAD DUP2 JUMP JUMPDEST PUSH1 0x0 DUP1 REVERT JUMPDEST PUSH1 0x0 PUSH20 0xFFFFFFFFFFFFFFFFFFFFFFFFFFFFFFFFFFFFFFFF DUP3 AND SWAP1 POP SWAP2 SWAP1 POP JUMP JUMPDEST PUSH1 0x0 PUSH2 0x606 DUP3 PUSH2 0x5DB JUMP JUMPDEST SWAP1 POP SWAP2 SWAP1 POP JUMP JUMPDEST PUSH2 0x616 DUP2 PUSH2 0x5FB JUMP JUMPDEST DUP2 EQ PUSH2 0x621 JUMPI PUSH1 0x0 DUP1 REVERT JUMPDEST POP JUMP JUMPDEST PUSH1 0x0 DUP2 CALLDATALOAD SWAP1 POP PUSH2 0x633 DUP2 PUSH2 0x60D JUMP JUMPDEST SWAP3 SWAP2 POP POP JUMP JUMPDEST PUSH1 0x0 PUSH1 0x20 DUP3 DUP5 SUB SLT ISZERO PUSH2 0x64F JUMPI PUSH2 0x64E PUSH2 0x5D6 JUMP JUMPDEST JUMPDEST PUSH1 0x0 PUSH2 0x65D DUP5 DUP3 DUP6 ADD PUSH2 0x624 JUMP JUMPDEST SWAP2 POP POP SWAP3 SWAP2 POP POP JUMP JUMPDEST PUSH1 0x0 DUP2 SWAP1 POP SWAP2 SWAP1 POP JUMP JUMPDEST PUSH2 0x679 DUP2 PUSH2 0x666 JUMP JUMPDEST DUP3 MSTORE POP POP JUMP JUMPDEST PUSH1 0x0 PUSH1 0x20 DUP3 ADD SWAP1 POP PUSH2 0x694 PUSH1 0x0 DUP4 ADD DUP5 PUSH2 0x670 JUMP JUMPDEST SWAP3 SWAP2 POP POP JUMP JUMPDEST PUSH2 0x6A3 DUP2 PUSH2 0x5FB JUMP JUMPDEST DUP3 MSTORE POP POP JUMP JUMPDEST PUSH1 0x0 PUSH1 0x20 DUP3 ADD SWAP1 POP PUSH2 0x6BE PUSH1 0x0 DUP4 ADD DUP5 PUSH2 0x69A JUMP JUMPDEST SWAP3 SWAP2 POP POP JUMP JUMPDEST PUSH1 0x0 DUP3 DUP3 MSTORE PUSH1 0x20 DUP3 ADD SWAP1 POP SWAP3 SWAP2 POP POP JUMP JUMPDEST PUSH32 0x596F752061726520616C72656164792072656769737465726564210000000000 PUSH1 0x0 DUP3 ADD MSTORE POP JUMP JUMPDEST PUSH1 0x0 PUSH2 0x70B PUSH1 0x1B DUP4 PUSH2 0x6C4 JUMP JUMPDEST SWAP2 POP PUSH2 0x716 DUP3 PUSH2 0x6D5 JUMP JUMPDEST PUSH1 0x20 DUP3 ADD SWAP1 POP SWAP2 SWAP1 POP JUMP JUMPDEST PUSH1 0x0 PUSH1 0x20 DUP3 ADD SWAP1 POP DUP2 DUP2 SUB PUSH1 0x0 DUP4 ADD MSTORE PUSH2 0x73A DUP2 PUSH2 0x6FE JUMP JUMPDEST SWAP1 POP SWAP2 SWAP1 POP JUMP JUMPDEST PUSH32 0x4E487B7100000000000000000000000000000000000000000000000000000000 PUSH1 0x0 MSTORE PUSH1 0x11 PUSH1 0x4 MSTORE PUSH1 0x24 PUSH1 0x0 REVERT JUMPDEST PUSH1 0x0 PUSH2 0x77B DUP3 PUSH2 0x666 JUMP JUMPDEST SWAP2 POP PUSH2 0x786 DUP4 PUSH2 0x666 JUMP JUMPDEST SWAP3 POP DUP3 DUP3 ADD SWAP1 POP DUP1 DUP3 GT ISZERO PUSH2 0x79E JUMPI PUSH2 0x79D PUSH2 0x741 JUMP JUMPDEST JUMPDEST SWAP3 SWAP2 POP POP JUMP JUMPDEST PUSH32 0x596F75206E65656420746F207265676973746572206669727374210000000000 PUSH1 0x0 DUP3 ADD MSTORE POP JUMP JUMPDEST PUSH1 0x0 PUSH2 0x7DA PUSH1 0x1B DUP4 PUSH2 0x6C4 JUMP JUMPDEST SWAP2 POP PUSH2 0x7E5 DUP3 PUSH2 0x7A4 JUMP JUMPDEST PUSH1 0x20 DUP3 ADD SWAP1 POP SWAP2 SWAP1 POP JUMP JUMPDEST PUSH1 0x0 PUSH1 0x20 DUP3 ADD SWAP1 POP DUP2 DUP2 SUB PUSH1 0x0 DUP4 ADD MSTORE PUSH2 0x809 DUP2 PUSH2 0x7CD JUMP JUMPDEST SWAP1 POP SWAP2 SWAP1 POP JUMP JUMPDEST PUSH32 0x56657374696E67206861736E2774207374617274656420796574210000000000 PUSH1 0x0 DUP3 ADD MSTORE POP JUMP JUMPDEST PUSH1 0x0 PUSH2 0x846 PUSH1 0x1B DUP4 PUSH2 0x6C4 JUMP JUMPDEST SWAP2 POP PUSH2 0x851 DUP3 PUSH2 0x810 JUMP JUMPDEST PUSH1 0x20 DUP3 ADD SWAP1 POP SWAP2 SWAP1 POP JUMP JUMPDEST PUSH1 0x0 PUSH1 0x20 DUP3 ADD SWAP1 POP DUP2 DUP2 SUB PUSH1 0x0 DUP4 ADD MSTORE PUSH2 0x875 DUP2 PUSH2 0x839 JUMP JUMPDEST SWAP1 POP SWAP2 SWAP1 POP JUMP JUMPDEST PUSH1 0x0 PUSH2 0x887 DUP3 PUSH2 0x666 JUMP JUMPDEST SWAP2 POP PUSH2 0x892 DUP4 PUSH2 0x666 JUMP JUMPDEST SWAP3 POP DUP3 DUP3 SUB SWAP1 POP DUP2 DUP2 GT ISZERO PUSH2 0x8AA JUMPI PUSH2 0x8A9 PUSH2 0x741 JUMP JUMPDEST JUMPDEST SWAP3 SWAP2 POP POP JUMP JUMPDEST PUSH32 0x4E487B7100000000000000000000000000000000000000000000000000000000 PUSH1 0x0 MSTORE PUSH1 0x12 PUSH1 0x4 MSTORE PUSH1 0x24 PUSH1 0x0 REVERT JUMPDEST PUSH1 0x0 PUSH2 0x8EA DUP3 PUSH2 0x666 JUMP JUMPDEST SWAP2 POP PUSH2 0x8F5 DUP4 PUSH2 0x666 JUMP JUMPDEST SWAP3 POP DUP3 PUSH2 0x905 JUMPI PUSH2 0x904 PUSH2 0x8B0 JUMP JUMPDEST JUMPDEST DUP3 DUP3 DIV SWAP1 POP SWAP3 SWAP2 POP POP JUMP JUMPDEST PUSH1 0x0 PUSH2 0x91B DUP3 PUSH2 0x666 JUMP JUMPDEST SWAP2 POP PUSH2 0x926 DUP4 PUSH2 0x666 JUMP JUMPDEST SWAP3 POP DUP3 DUP3 MUL PUSH2 0x934 DUP2 PUSH2 0x666 JUMP JUMPDEST SWAP2 POP DUP3 DUP3 DIV DUP5 EQ DUP4 ISZERO OR PUSH2 0x94B JUMPI PUSH2 0x94A PUSH2 0x741 JUMP JUMPDEST JUMPDEST POP SWAP3 SWAP2 POP POP JUMP JUMPDEST PUSH32 0x4E6F20746F6B656E7320746F20636C61696D0000000000000000000000000000 PUSH1 0x0 DUP3 ADD MSTORE POP JUMP JUMPDEST PUSH1 0x0 PUSH2 0x988 PUSH1 0x12 DUP4 PUSH2 0x6C4 JUMP JUMPDEST SWAP2 POP PUSH2 0x993 DUP3 PUSH2 0x952 JUMP JUMPDEST PUSH1 0x20 DUP3 ADD SWAP1 POP SWAP2 SWAP1 POP JUMP JUMPDEST PUSH1 0x0 PUSH1 0x20 DUP3 ADD SWAP1 POP DUP2 DUP2 SUB PUSH1 0x0 DUP4 ADD MSTORE PUSH2 0x9B7 DUP2 PUSH2 0x97B JUMP JUMPDEST SWAP1 POP SWAP2 SWAP1 POP JUMP JUMPDEST PUSH1 0x0 PUSH1 0x40 DUP3 ADD SWAP1 POP PUSH2 0x9D3 PUSH1 0x0 DUP4 ADD DUP6 PUSH2 0x69A JUMP JUMPDEST PUSH2 0x9E0 PUSH1 0x20 DUP4 ADD DUP5 PUSH2 0x670 JUMP JUMPDEST SWAP4 SWAP3 POP POP POP JUMP JUMPDEST PUSH1 0x0 DUP2 ISZERO ISZERO SWAP1 POP SWAP2 SWAP1 POP JUMP JUMPDEST PUSH2 0x9FC DUP2 PUSH2 0x9E7 JUMP JUMPDEST DUP2 EQ PUSH2 0xA07 JUMPI PUSH1 0x0 DUP1 REVERT JUMPDEST POP JUMP JUMPDEST PUSH1 0x0 DUP2 MLOAD SWAP1 POP PUSH2 0xA19 DUP2 PUSH2 0x9F3 JUMP JUMPDEST SWAP3 SWAP2 POP POP JUMP JUMPDEST PUSH1 0x0 PUSH1 0x20 DUP3 DUP5 SUB SLT ISZERO PUSH2 0xA35 JUMPI PUSH2 0xA34 PUSH2 0x5D6 JUMP JUMPDEST JUMPDEST PUSH1 0x0 PUSH2 0xA43 DUP5 DUP3 DUP6 ADD PUSH2 0xA0A JUMP JUMPDEST SWAP2 POP POP SWAP3 SWAP2 POP POP JUMP INVALID LOG2 PUSH5 0x6970667358 0x22 SLT KECCAK256 INVALID 0xA6 0xDD 0xA7 0x2C PUSH11 0x3ACDE5B5F7541E406DF2E0 0xDA RETURN MUL BLOBBASEFEE 0x4F PUSH25 0x686FFB49DE964A256F64736F6C634300081B00330000000000 "},"methodIdentifiers":{"claimTokens()":"48c54b9d","getUserVestingAmount()":"52925daf","register()":"1aa3a008","tokenAddress()":"9d76ea58","totalVestingAmount()":"2db94d19","userClaimedAmount(address)":"2f926723","userVestingAmount()":"2fe35fa7","userVestingStartTime(address)":"14cedee0","vestingInterval()":"b8e50cab","vestingTotalIntervals()":"eefe3844"}}}}}