{
  "_format": "hh-sol-artifact-1",
  "contractName": "Vesting",
  "sourceName": "contracts/Vesting.sol",
  "abi": [
    {
      "inputs": [
        {
          "internalType": "uint256",
          "name": "_vestingInterval",
          "type": "uint256"
        },
        {
          "internalType": "uint256",
          "name": "_vestingTotalIntervals",
          "type": "uint256"
        },
        {
          "internalType": "uint256",
          "name": "_totalVestingAmount",
          "type": "uint256"
        },
        {
          "internalType": "address",
          "name": "_tokenAddress",
          "type": "address"
        }
      ],
      "stateMutability": "nonpayable",
      "type": "constructor"
    },
    {
      "inputs": [],
      "name": "claimTokens",
      "outputs": [],
      "stateMutability": "nonpayable",
      "type": "function"
    },
    {
      "inputs": [],
      "name": "getUserVestingAmount",
      "outputs": [
        {
          "internalType": "uint256",
          "name": "",
          "type": "uint256"
        }
      ],
      "stateMutability": "view",
      "type": "function"
    },
    {
      "inputs": [],
      "name": "register",
      "outputs": [],
      "stateMutability": "nonpayable",
      "type": "function"
    },
    {
      "inputs": [],
      "name": "tokenAddress",
      "outputs": [
        {
          "internalType": "address",
          "name": "",
          "type": "address"
        }
      ],
      "stateMutability": "view",
      "type": "function"
    },
    {
      "inputs": [],
      "name": "totalVestingAmount",
      "outputs": [
        {
          "internalType": "uint256",
          "name": "",
          "type": "uint256"
        }
      ],
      "stateMutability": "view",
      "type": "function"
    },
    {
      "inputs": [
        {
          "internalType": "address",
          "name": "",
          "type": "address"
        }
      ],
      "name": "userClaimedAmount",
      "outputs": [
        {
          "internalType": "uint256",
          "name": "",
          "type": "uint256"
        }
      ],
      "stateMutability": "view",
      "type": "function"
    },
    {
      "inputs": [],
      "name": "userVestingAmount",
      "outputs": [
        {
          "internalType": "uint256",
          "name": "",
          "type": "uint256"
        }
      ],
      "stateMutability": "view",
      "type": "function"
    },
    {
      "inputs": [
        {
          "internalType": "address",
          "name": "",
          "type": "address"
        }
      ],
      "name": "userVestingStartTime",
      "outputs": [
        {
          "internalType": "uint256",
          "name": "",
          "type": "uint256"
        }
      ],
      "stateMutability": "view",
      "type": "function"
    },
    {
      "inputs": [],
      "name": "vestingInterval",
      "outputs": [
        {
          "internalType": "uint256",
          "name": "",
          "type": "uint256"
        }
      ],
      "stateMutability": "view",
      "type": "function"
    },
    {
      "inputs": [],
      "name": "vestingTotalIntervals",
      "outputs": [
        {
          "internalType": "uint256",
          "name": "",
          "type": "uint256"
        }
      ],
      "stateMutability": "view",
      "type": "function"
    }
  ],
  "bytecode": "0x608060405234801561001057600080fd5b50604051610c22380380610c228339818101604052810190610032919061012a565b83600081905550826001819055508160028190555080600460006101000a81548173ffffffffffffffffffffffffffffffffffffffff021916908373ffffffffffffffffffffffffffffffffffffffff16021790555050505050610191565b600080fd5b6000819050919050565b6100a981610096565b81146100b457600080fd5b50565b6000815190506100c6816100a0565b92915050565b600073ffffffffffffffffffffffffffffffffffffffff82169050919050565b60006100f7826100cc565b9050919050565b610107816100ec565b811461011257600080fd5b50565b600081519050610124816100fe565b92915050565b6000806000806080858703121561014457610143610091565b5b6000610152878288016100b7565b9450506020610163878288016100b7565b9350506040610174878288016100b7565b925050606061018587828801610115565b91505092959194509250565b610a82806101a06000396000f3fe608060405234801561001057600080fd5b506004361061009e5760003560e01c806348c54b9d1161006657806348c54b9d1461014957806352925daf146101535780639d76ea5814610171578063b8e50cab1461018f578063eefe3844146101ad5761009e565b806314cedee0146100a35780631aa3a008146100d35780632db94d19146100dd5780632f926723146100fb5780632fe35fa71461012b575b600080fd5b6100bd60048036038101906100b89190610639565b6101cb565b6040516100ca919061067f565b60405180910390f35b6100db6101e3565b005b6100e56102b7565b6040516100f2919061067f565b60405180910390f35b61011560048036038101906101109190610639565b6102bd565b604051610122919061067f565b60405180910390f35b6101336102d5565b604051610140919061067f565b60405180910390f35b6101516102db565b005b61015b61058d565b604051610168919061067f565b60405180910390f35b6101796105a4565b60405161018691906106a9565b60405180910390f35b6101976105ca565b6040516101a4919061067f565b60405180910390f35b6101b56105d0565b6040516101c2919061067f565b60405180910390f35b60056020528060005260406000206000915090505481565b6000600560003373ffffffffffffffffffffffffffffffffffffffff1673ffffffffffffffffffffffffffffffffffffffff1681526020019081526020016000205414610265576040517f08c379a000000000000000000000000000000000000000000000000000000000815260040161025c90610721565b60405180910390fd5b60b4426102729190610770565b600560003373ffffffffffffffffffffffffffffffffffffffff1673ffffffffffffffffffffffffffffffffffffffff16815260200190815260200160002081905550565b60025481565b60066020528060005260406000206000915090505481565b60035481565b6000600560003373ffffffffffffffffffffffffffffffffffffffff1673ffffffffffffffffffffffffffffffffffffffff16815260200190815260200160002054905060008111610362576040517f08c379a0000000000000000000000000000000000000000000000000000000008152600401610359906107f0565b60405180910390fd5b804210156103a5576040517f08c379a000000000000000000000000000000000000000000000000000000000815260040161039c9061085c565b60405180910390fd5b6000805482426103b5919061087c565b6103bf91906108df565b905060006103cb61058d565b826103d69190610910565b90506000600660003373ffffffffffffffffffffffffffffffffffffffff1673ffffffffffffffffffffffffffffffffffffffff1681526020019081526020016000205482610425919061087c565b90506000811161046a576040517f08c379a00000000000000000000000000000000000000000000000000000000081526004016104619061099e565b60405180910390fd5b670de0b6b3a76400008161047e9190610910565b600660003373ffffffffffffffffffffffffffffffffffffffff1673ffffffffffffffffffffffffffffffffffffffff16815260200190815260200160002060008282546104cc9190610770565b92505081905550600460009054906101000a900473ffffffffffffffffffffffffffffffffffffffff1673ffffffffffffffffffffffffffffffffffffffff1663a9059cbb33670de0b6b3a7640000846105269190610910565b6040518363ffffffff1660e01b81526004016105439291906109be565b6020604051808303816000875af1158015610562573d6000803e3d6000fd5b505050506040513d601f19601f820116820180604052508101906105869190610a1f565b5050505050565b600060015460025461059f91906108df565b905090565b600460009054906101000a900473ffffffffffffffffffffffffffffffffffffffff1681565b60005481565b60015481565b600080fd5b600073ffffffffffffffffffffffffffffffffffffffff82169050919050565b6000610606826105db565b9050919050565b610616816105fb565b811461062157600080fd5b50565b6000813590506106338161060d565b92915050565b60006020828403121561064f5761064e6105d6565b5b600061065d84828501610624565b91505092915050565b6000819050919050565b61067981610666565b82525050565b60006020820190506106946000830184610670565b92915050565b6106a3816105fb565b82525050565b60006020820190506106be600083018461069a565b92915050565b600082825260208201905092915050565b7f596f752061726520616c72656164792072656769737465726564210000000000600082015250565b600061070b601b836106c4565b9150610716826106d5565b602082019050919050565b6000602082019050818103600083015261073a816106fe565b9050919050565b7f4e487b7100000000000000000000000000000000000000000000000000000000600052601160045260246000fd5b600061077b82610666565b915061078683610666565b925082820190508082111561079e5761079d610741565b5b92915050565b7f596f75206e65656420746f207265676973746572206669727374210000000000600082015250565b60006107da601b836106c4565b91506107e5826107a4565b602082019050919050565b60006020820190508181036000830152610809816107cd565b9050919050565b7f56657374696e67206861736e2774207374617274656420796574210000000000600082015250565b6000610846601b836106c4565b915061085182610810565b602082019050919050565b6000602082019050818103600083015261087581610839565b9050919050565b600061088782610666565b915061089283610666565b92508282039050818111156108aa576108a9610741565b5b92915050565b7f4e487b7100000000000000000000000000000000000000000000000000000000600052601260045260246000fd5b60006108ea82610666565b91506108f583610666565b925082610905576109046108b0565b5b828204905092915050565b600061091b82610666565b915061092683610666565b925082820261093481610666565b9150828204841483151761094b5761094a610741565b5b5092915050565b7f4e6f20746f6b656e7320746f20636c61696d0000000000000000000000000000600082015250565b60006109886012836106c4565b915061099382610952565b602082019050919050565b600060208201905081810360008301526109b78161097b565b9050919050565b60006040820190506109d3600083018561069a565b6109e06020830184610670565b9392505050565b60008115159050919050565b6109fc816109e7565b8114610a0757600080fd5b50565b600081519050610a19816109f3565b92915050565b600060208284031215610a3557610a346105d6565b5b6000610a4384828501610a0a565b9150509291505056fea2646970667358221220fea6dda72c6a3acde5b5f7541e406df2e0daf3024a4f78686ffb49de964a256f64736f6c634300081b0033",
  "linkReferences": {},
  "deployedLinkReferences": {}
}